:100000000C9435000C945D000C945D000C945D0024
:100010000C945D000C945D000C945D000C945D00EC
:100020000C945D000C945D000C945D000C945D00DC
:100030000C945D000C945D000C945D000C945D00CC
:100040000C947D010C945D000C94ED010C94C7019F
:100050000C945D000C945D000C945D000C945D00AC
:100060000C945D000C945D00120311241FBECFEFB1
:10007000D8E0DEBFCDBF11E0A0E0B1E0ECEDF6E0EE
:1000800002C005900D92AE32B107D9F721E0AEE281
:10009000B1E001C01D92A43DB207E1F710E0C5E355
:1000A000D0E004C02197FE010E946103C433D10750
:1000B000C9F70E941F020C946C030C940000CF92AD
:1000C000DF92EF92FF920F931F93CF93DF936C0118
:1000D0007A018B01C0E0D0E0CE15DF0589F0D801B0
:1000E0006D918D01D601ED91FC910190F081E02D93
:1000F000C6010995892B11F47E0102C02196ECCF2F
:10010000C701DF91CF911F910F91FF90EF90DF908A
:10011000CF900895089580E090E00895FC01538DFC
:10012000448D252F30E0842F90E0821B930B5417D1
:1001300010F0CF96089501970895FC01918D828D5E
:10014000981761F0828DDF01A80FB11D5D968C912B
:10015000928D9F5F9F73928F90E008958FEF9FEF36
:100160000895FC01918D828D981731F0828DE80FF2
:10017000F11D858D90E008958FEF9FEF0895FC01AC
:10018000918D228D892F90E0805C9F4F821B910979
:100190008F739927089587E391E00E94BF0021E0C3
:1001A000892B09F420E0822F0895FC01848DDF0162
:1001B000A80FB11DA35ABF4F2C91848D90E00196DA
:1001C0008F739927848FA689B7892C93A089B189C9
:1001D0008C9180648C93938D848D981306C00288D3
:1001E000F389E02D80818F7D80830895EF92FF92C7
:1001F0000F931F93CF93DF93EC0181E0888F9B8D4A
:100200008C8D981305C0E889F989808185FD24C00B
:10021000F62E0B8D10E00F5F1F4F0F731127E02E8E
:100220008C8DE8120CC00FB607FCFACFE889F9896B
:10023000808185FFF5CFCE010E94D500F1CF8B8D57
:10024000FE01E80FF11DE35AFF4FF0820B8FEA89A0
:10025000FB898081806207C0EE89FF896083E8891D
:10026000F98980818064808381E090E0DF91CF9183
:100270001F910F91FF90EF900895CF93DF93EC01C2
:10028000888D8823C9F0EA89FB89808185FD05C0B6
:10029000A889B9898C9186FD0FC00FB607FCF5CFF0
:1002A000808185FFF2CFA889B9898C9185FFEDCF38
:1002B000CE010E94D500E7CFDF91CF91089580E075
:1002C00090E0892B29F00E94CB0081110C94000052
:1002D0000895009769F0FC0101900020E9F731973B
:1002E000AF01481B590BBC0187E391E00C945F0000
:1002F00080E090E008950E9467031F920F920FB66E
:100300000F9211242F933F938F939F93AF93BF939B
:100310008091330190913401A0913501B091360163
:100320003091320123E0230F2D3720F40196A11DD7
:10033000B11D05C026E8230F0296A11DB11D209313
:1003400032018093330190933401A0933501B0932F
:10035000360180912E0190912F01A0913001B09132
:1003600031010196A11DB11D80932E0190932F01A3
:10037000A0933001B0933101BF91AF919F918F91C4
:100380003F912F910F900FBE0F901F9018951F92C5
:100390000F920FB60F9211242F933F934F935F93B9
:1003A0006F937F938F939F93AF93BF93EF93FF933D
:1003B00087E391E00E94D500FF91EF91BF91AF914B
:1003C0009F918F917F916F915F914F913F912F916D
:1003D0000F900FBE0F901F9018951F920F920FB69F
:1003E0000F9211242F938F939F93EF93FF93E0919C
:1003F0004701F09148018081E0914D01F0914E015B
:1004000082FD12C09081809150018F5F8F73209187
:100410005101821751F0E0915001F0E0E95CFE4F8C
:10042000958F8093500101C08081FF91EF919F9142
:100430008F912F910F900FBE0F901F901895CF9313
:10044000DF93CDB7DEB7A1970FB6F894DEBF0FBE2E
:10045000CDBF789484B5826084BD84B5816084BD4D
:1004600085B5826085BD85B5816085BD80916E0052
:10047000816080936E001092810080918100826083
:1004800080938100809181008160809381008091C0
:1004900080008160809380008091B10084608093AF
:1004A000B1008091B00081608093B00080917A00AB
:1004B000846080937A0080917A00826080937A00D1
:1004C00080917A00816080937A0080917A008068C0
:1004D00080937A001092C100E0914701F0914801A9
:1004E00082E08083E0914301F09144011082E09129
:1004F0004501F09146018FEC808310924F01E0910D
:100500004B01F0914C0186E08083E0914901F0912C
:100510004A01808180618083E0914901F0914A0124
:10052000808188608083E0914901F0914A01808157
:1005300080688083E0914901F0914A0180818F7D3C
:1005400080830AE111E090E1F92EF00EF80161914B
:100550008F01E0913701F09138010190F081E02D99
:1005600087E391E009958AE291E00E946901F01227
:10057000EDCF02E111E08AE0882E912CA12CB12C64
:10058000F801C190D1908F010D2C000CEE08FF08EE
:10059000F7FE26C0E0913701F09138010190F0811B
:1005A000E02D6DE287E391E0099522273327A90129
:1005B0002C193D094E095F0919A2CE0181967C01D3
:1005C000CA01B901A50194010E943F03605DF701D2
:1005D00062937F01211531054105510589F715C049
:1005E000A701960119A2CE0181967C01CA01B90129
:1005F000A50194010E943F03605DF70162937F01B2
:10060000211531054105510589F7C7010E9469018E
:100610008AE291E00E946901F1E00A311F0709F0C6
:10062000AFCFFFCFE7E3F1E01382128288EE93E0D1
:10063000A0E0B0E084839583A683B78384E091E053
:100640009183808385EC90E09587848784EC90E0AB
:100650009787868780EC90E0918B808B81EC90E08F
:10066000938B828B82EC90E0958B848B86EC90E070
:10067000978B868B118E128E138E148E0895A1E2A5
:100680001A2EAA1BBB1BFD010DC0AA1FBB1FEE1F0C
:10069000FF1FA217B307E407F50720F0A21BB30B57
:1006A000E40BF50B661F771F881F991F1A9469F7D3
:1006B00060957095809590959B01AC01BD01CF012F
:1006C0000895EE0FFF1F0590F491E02D099481E04D
:0C06D00090E0F8940C946C03F894FFCFB9
:1006DC0000000000F6005F008E003D01BF009D0091
:1006EC00B10001000300050007004D5548454E447C
:0E06FC004953424559494E4C45520D0A0000E3
:00000001FF
